{
  "contractName": "VotingSystem",
  "abi": [
    {
      "inputs": [],
      "stateMutability": "nonpayable",
      "type": "constructor"
    },
    {
      "inputs": [
        {
          "internalType": "uint256",
          "name": "",
          "type": "uint256"
        }
      ],
      "name": "candidates",
      "outputs": [
        {
          "internalType": "string",
          "name": "name",
          "type": "string"
        },
        {
          "internalType": "uint256",
          "name": "voteCount",
          "type": "uint256"
        }
      ],
      "stateMutability": "view",
      "type": "function",
      "constant": true
    },
    {
      "inputs": [
        {
          "internalType": "address",
          "name": "",
          "type": "address"
        }
      ],
      "name": "voters",
      "outputs": [
        {
          "internalType": "bool",
          "name": "hasVoted",
          "type": "bool"
        },
        {
          "internalType": "uint256",
          "name": "candidateVoted",
          "type": "uint256"
        }
      ],
      "stateMutability": "view",
      "type": "function",
      "constant": true
    },
    {
      "inputs": [
        {
          "internalType": "uint256",
          "name": "candidateId",
          "type": "uint256"
        }
      ],
      "name": "vote",
      "outputs": [],
      "stateMutability": "nonpayable",
      "type": "function"
    },
    {
      "inputs": [
        {
          "internalType": "uint256",
          "name": "candidateId",
          "type": "uint256"
        }
      ],
      "name": "getCandidateVoteCount",
      "outputs": [
        {
          "internalType": "uint256",
          "name": "",
          "type": "uint256"
        }
      ],
      "stateMutability": "view",
      "type": "function",
      "constant": true
    },
    {
      "inputs": [
        {
          "internalType": "uint256",
          "name": "candidateId",
          "type": "uint256"
        }
      ],
      "name": "getCandidateName",
      "outputs": [
        {
          "internalType": "string",
          "name": "",
          "type": "string"
        }
      ],
      "stateMutability": "view",
      "type": "function",
      "constant": true
    }
  ],
  "bytecode": "0x608060405234801561001057600080fd5b50600160405180604001604052806040518060400160405280600a81526020017f4a75616e20506f6e63650000000000000000000000000000000000000000000081525081526020016000815250908060018154018082558091505060019003906000526020600020906002020160009091909190915060008201518160000190805190602001906100a39291906101f3565b50602082015181600101555050600160405180604001604052806040518060400160405280600b81526020017f4c617572612053696c766100000000000000000000000000000000000000000081525081526020016000815250908060018154018082558091505060019003906000526020600020906002020160009091909190915060008201518160000190805190602001906101429291906101f3565b50602082015181600101555050600160405180604001604052806040518060400160405280600d81526020017f5061626c6f204d6f72616c65730000000000000000000000000000000000000081525081526020016000815250908060018154018082558091505060019003906000526020600020906002020160009091909190915060008201518160000190805190602001906101e19291906101f3565b506020820151816001015550506102f7565b8280546101ff90610296565b90600052602060002090601f0160209004810192826102215760008555610268565b82601f1061023a57805160ff1916838001178555610268565b82800160010185558215610268579182015b8281111561026757825182559160200191906001019061024c565b5b5090506102759190610279565b5090565b5b8082111561029257600081600090555060010161027a565b5090565b600060028204905060018216806102ae57607f821691505b602082108114156102c2576102c16102c8565b5b50919050565b7f4e487b7100000000000000000000000000000000000000000000000000000000600052602260045260246000fd5b6109dd80620003076000396000f3fe608060405234801561001057600080fd5b50600436106100575760003560e01c80630121b93f1461005c5780633477ee2e14610078578063a3ec138d146100a9578063b315c597146100da578063e13804a71461010a575b600080fd5b61007660048036038101906100719190610615565b61013a565b005b610092600480360381019061008d9190610615565b610315565b6040516100a0929190610760565b60405180910390f35b6100c360048036038101906100be91906105ec565b6103d1565b6040516100d1929190610715565b60405180910390f35b6100f460048036038101906100ef9190610615565b610402565b60405161010191906107d0565b60405180910390f35b610124600480360381019061011f9190610615565b61049e565b604051610131919061073e565b60405180910390f35b6000803373ffffffffffffffffffffffffffffffffffffffff1673ffffffffffffffffffffffffffffffffffffffff16815260200190815260200160002060000160009054906101000a900460ff16156101c9576040517f08c379a00000000000000000000000000000000000000000000000000000000081526004016101c090610790565b60405180910390fd5b6001805490508110610210576040517f08c379a0000000000000000000000000000000000000000000000000000000008152600401610207906107b0565b60405180910390fd5b60016000803373ffffffffffffffffffffffffffffffffffffffff1673ffffffffffffffffffffffffffffffffffffffff16815260200190815260200160002060000160006101000a81548160ff021916908315150217905550806000803373ffffffffffffffffffffffffffffffffffffffff1673ffffffffffffffffffffffffffffffffffffffff1681526020019081526020016000206001018190555060018082815481106102eb577f4e487b7100000000000000000000000000000000000000000000000000000000600052603260045260246000fd5b9060005260206000209060020201600101600082825461030b9190610807565b9250508190555050565b6001818154811061032557600080fd5b9060005260206000209060020201600091509050806000018054610348906108d8565b80601f0160208091040260200160405190810160405280929190818152602001828054610374906108d8565b80156103c15780601f10610396576101008083540402835291602001916103c1565b820191906000526020600020905b8154815290600101906020018083116103a457829003601f168201915b5050505050908060010154905082565b60006020528060005260406000206000915090508060000160009054906101000a900460ff16908060010154905082565b6000600180549050821061044b576040517f08c379a0000000000000000000000000000000000000000000000000000000008152600401610442906107b0565b60405180910390fd5b60018281548110610485577f4e487b7100000000000000000000000000000000000000000000000000000000600052603260045260246000fd5b9060005260206000209060020201600101549050919050565b606060018054905082106104e7576040517f08c379a00000000000000000000000000000000000000000000000000000000081526004016104de906107b0565b60405180910390fd5b60018281548110610521577f4e487b7100000000000000000000000000000000000000000000000000000000600052603260045260246000fd5b9060005260206000209060020201600001805461053d906108d8565b80601f0160208091040260200160405190810160405280929190818152602001828054610569906108d8565b80156105b65780601f1061058b576101008083540402835291602001916105b6565b820191906000526020600020905b81548152906001019060200180831161059957829003601f168201915b50505050509050919050565b6000813590506105d181610979565b92915050565b6000813590506105e681610990565b92915050565b6000602082840312156105fe57600080fd5b600061060c848285016105c2565b91505092915050565b60006020828403121561062757600080fd5b6000610635848285016105d7565b91505092915050565b6106478161086f565b82525050565b6000610658826107eb565b61066281856107f6565b93506106728185602086016108a5565b61067b81610968565b840191505092915050565b6000610693600d836107f6565b91507f59612068617320766f7461646f000000000000000000000000000000000000006000830152602082019050919050565b60006106d36012836107f6565b91507f43616e64696461746f20696e76616c69646f00000000000000000000000000006000830152602082019050919050565b61070f8161089b565b82525050565b600060408201905061072a600083018561063e565b6107376020830184610706565b9392505050565b60006020820190508181036000830152610758818461064d565b905092915050565b6000604082019050818103600083015261077a818561064d565b90506107896020830184610706565b9392505050565b600060208201905081810360008301526107a981610686565b9050919050565b600060208201905081810360008301526107c9816106c6565b9050919050565b60006020820190506107e56000830184610706565b92915050565b600081519050919050565b600082825260208201905092915050565b60006108128261089b565b915061081d8361089b565b9250827fffffffffffffffffffffffffffffffffffffffffffffffffffffffffffffffff038211156108525761085161090a565b5b828201905092915050565b60006108688261087b565b9050919050565b60008115159050919050565b600073ffffffffffffffffffffffffffffffffffffffff82169050919050565b6000819050919050565b60005b838110156108c35780820151818401526020810190506108a8565b838111156108d2576000848401525b50505050565b600060028204905060018216806108f057607f821691505b6020821081141561090457610903610939565b5b50919050565b7f4e487b7100000000000000000000000000000000000000000000000000000000600052601160045260246000fd5b7f4e487b7100000000000000000000000000000000000000000000000000000000600052602260045260246000fd5b6000601f19601f8301169050919050565b6109828161085d565b811461098d57600080fd5b50565b6109998161089b565b81146109a457600080fd5b5056fea2646970667358221220b7dda6240a0602215816feca1a24a46ae9e943c8e1acf0c7abcc67352a318dde64736f6c63430008000033",
  "immutableReferences": {},
  "source": "// SPDX-License-Identifier: MIT\r\npragma solidity ^0.8.0;\r\n\r\ncontract VotingSystem {\r\n    struct Voter {\r\n        bool hasVoted;\r\n        uint256 candidateVoted; // ID del candidato por el que vot\r\n    }\r\n\r\n    struct Candidate {\r\n        string name;\r\n        uint256 voteCount;\r\n    }\r\n\r\n    mapping(address => Voter) public voters;\r\n    Candidate[] public candidates;\r\n\r\n    // Constructor que inicializa los candidatos\r\n    constructor() {\r\n        // Candidatos precargados\r\n        candidates.push(Candidate(\"Juan Ponce\", 0));\r\n        candidates.push(Candidate(\"Laura Silva\", 0));\r\n        candidates.push(Candidate(\"Pablo Morales\", 0));\r\n    }\r\n\r\n    function vote(uint256 candidateId) public {\r\n        require(!voters[msg.sender].hasVoted, \"Ya has votado\");\r\n        require(candidateId < candidates.length, \"Candidato invalido\");\r\n\r\n        voters[msg.sender].hasVoted = true;\r\n        voters[msg.sender].candidateVoted = candidateId;\r\n        candidates[candidateId].voteCount += 1;\r\n    }\r\n\r\n    function getCandidateVoteCount(uint256 candidateId) public view returns (uint256) {\r\n        require(candidateId < candidates.length, \"Candidato invalido\");\r\n        return candidates[candidateId].voteCount;\r\n    }\r\n\r\n    function getCandidateName(uint256 candidateId) public view returns (string memory) {\r\n        require(candidateId < candidates.length, \"Candidato invalido\");\r\n        return candidates[candidateId].name;\r\n    }\r\n}",
  "sourcePath": "C:\\Users\\guerr\\source\\repos\\BlockchainTP\\SistemaDeVotacion.Contrato\\contracts\\VotingSystem.sol",
  "compiler": {
    "name": "solc",
    "version": "0.8.0+commit.c7dfd78e.Emscripten.clang"
  },
  "schemaVersion": "3.4.16",
  "updatedAt": "2024-11-02T23:48:45.985Z",
  "networkType": "ethereum",
  "devdoc": {
    "kind": "dev",
    "methods": {},
    "version": 1
  },
  "userdoc": {
    "kind": "user",
    "methods": {},
    "version": 1
  }
}