{
  "contractName": "VotingSystem",
  "abi": [
    {
      "inputs": [],
      "stateMutability": "nonpayable",
      "type": "constructor"
    },
    {
      "inputs": [
        {
          "internalType": "uint256",
          "name": "",
          "type": "uint256"
        }
      ],
      "name": "candidates",
      "outputs": [
        {
          "internalType": "string",
          "name": "name",
          "type": "string"
        },
        {
          "internalType": "uint256",
          "name": "voteCount",
          "type": "uint256"
        }
      ],
      "stateMutability": "view",
      "type": "function",
      "constant": true
    },
    {
      "inputs": [
        {
          "internalType": "uint256",
          "name": "",
          "type": "uint256"
        }
      ],
      "name": "voterAddresses",
      "outputs": [
        {
          "internalType": "address",
          "name": "",
          "type": "address"
        }
      ],
      "stateMutability": "view",
      "type": "function",
      "constant": true
    },
    {
      "inputs": [
        {
          "internalType": "address",
          "name": "",
          "type": "address"
        }
      ],
      "name": "voters",
      "outputs": [
        {
          "internalType": "bool",
          "name": "hasVoted",
          "type": "bool"
        },
        {
          "internalType": "uint256",
          "name": "candidateVoted",
          "type": "uint256"
        }
      ],
      "stateMutability": "view",
      "type": "function",
      "constant": true
    },
    {
      "inputs": [
        {
          "internalType": "uint256",
          "name": "candidateId",
          "type": "uint256"
        }
      ],
      "name": "vote",
      "outputs": [],
      "stateMutability": "nonpayable",
      "type": "function"
    },
    {
      "inputs": [
        {
          "internalType": "uint256",
          "name": "candidateId",
          "type": "uint256"
        }
      ],
      "name": "getCandidateVoteCount",
      "outputs": [
        {
          "internalType": "uint256",
          "name": "",
          "type": "uint256"
        }
      ],
      "stateMutability": "view",
      "type": "function",
      "constant": true
    },
    {
      "inputs": [
        {
          "internalType": "uint256",
          "name": "candidateId",
          "type": "uint256"
        }
      ],
      "name": "getCandidateName",
      "outputs": [
        {
          "internalType": "string",
          "name": "",
          "type": "string"
        }
      ],
      "stateMutability": "view",
      "type": "function",
      "constant": true
    },
    {
      "inputs": [],
      "name": "getAllVoterAddresses",
      "outputs": [
        {
          "internalType": "address[]",
          "name": "",
          "type": "address[]"
        }
      ],
      "stateMutability": "view",
      "type": "function",
      "constant": true
    },
    {
      "inputs": [
        {
          "internalType": "address",
          "name": "voterAddress",
          "type": "address"
        }
      ],
      "name": "hasVoterVoted",
      "outputs": [
        {
          "internalType": "bool",
          "name": "",
          "type": "bool"
        }
      ],
      "stateMutability": "view",
      "type": "function",
      "constant": true
    },
    {
      "inputs": [
        {
          "internalType": "address",
          "name": "voterAddress",
          "type": "address"
        }
      ],
      "name": "getVoterCandidate",
      "outputs": [
        {
          "internalType": "uint256",
          "name": "",
          "type": "uint256"
        }
      ],
      "stateMutability": "view",
      "type": "function",
      "constant": true
    }
  ],
  "bytecode": "0x60806040523480156200001157600080fd5b50600160405180604001604052806040518060400160405280600a81526020017f4a75616e20506f6e6365000000000000000000000000000000000000000000008152508152602001600081525090806001815401808255809150506001900390600052602060002090600202016000909190919091506000820151816000019080519060200190620000a6929190620001fb565b50602082015181600101555050600160405180604001604052806040518060400160405280600b81526020017f4c617572612053696c7661000000000000000000000000000000000000000000815250815260200160008152509080600181540180825580915050600190039060005260206000209060020201600090919091909150600082015181600001908051906020019062000147929190620001fb565b50602082015181600101555050600160405180604001604052806040518060400160405280600d81526020017f5061626c6f204d6f72616c6573000000000000000000000000000000000000008152508152602001600081525090806001815401808255809150506001900390600052602060002090600202016000909190919091506000820151816000019080519060200190620001e8929190620001fb565b5060208201518160010155505062000310565b8280546200020990620002ab565b90600052602060002090601f0160209004810192826200022d576000855562000279565b82601f106200024857805160ff191683800117855562000279565b8280016001018555821562000279579182015b82811115620002785782518255916020019190600101906200025b565b5b5090506200028891906200028c565b5090565b5b80821115620002a75760008160009055506001016200028d565b5090565b60006002820490506001821680620002c457607f821691505b60208210811415620002db57620002da620002e1565b5b50919050565b7f4e487b7100000000000000000000000000000000000000000000000000000000600052602260045260246000fd5b610da280620003206000396000f3fe608060405234801561001057600080fd5b50600436106100935760003560e01c8063b315c59711610066578063b315c59714610146578063cea04b0014610176578063dd0e237314610194578063e13804a7146101c4578063fd11f97a146101f457610093565b80630121b93f1461009857806304fb513c146100b45780633477ee2e146100e4578063a3ec138d14610115575b600080fd5b6100b260048036038101906100ad91906108b5565b610224565b005b6100ce60048036038101906100c9919061088c565b610445565b6040516100db9190610b5c565b60405180910390f35b6100fe60048036038101906100f991906108b5565b610490565b60405161010c929190610aec565b60405180910390f35b61012f600480360381019061012a919061088c565b61054c565b60405161013d929190610aa1565b60405180910390f35b610160600480360381019061015b91906108b5565b61057d565b60405161016d9190610b5c565b60405180910390f35b61017e610619565b60405161018b9190610a64565b60405180910390f35b6101ae60048036038101906101a991906108b5565b6106a7565b6040516101bb9190610a49565b60405180910390f35b6101de60048036038101906101d991906108b5565b6106e6565b6040516101eb9190610aca565b60405180910390f35b61020e6004803603810190610209919061088c565b61080a565b60405161021b9190610a86565b60405180910390f35b6000803373ffffffffffffffffffffffffffffffffffffffff1673ffffffffffffffffffffffffffffffffffffffff16815260200190815260200160002060000160009054906101000a900460ff16156102b3576040517f08c379a00000000000000000000000000000000000000000000000000000000081526004016102aa90610b1c565b60405180910390fd5b60018054905081106102fa576040517f08c379a00000000000000000000000000000000000000000000000000000000081526004016102f190610b3c565b60405180910390fd5b6040518060400160405280600115158152602001828152506000803373ffffffffffffffffffffffffffffffffffffffff1673ffffffffffffffffffffffffffffffffffffffff16815260200190815260200160002060008201518160000160006101000a81548160ff0219169083151502179055506020820151816001015590505060018082815481106103b8577f4e487b7100000000000000000000000000000000000000000000000000000000600052603260045260246000fd5b906000526020600020906002020160010160008282546103d89190610bcc565b925050819055506002339080600181540180825580915050600190039060005260206000200160009091909190916101000a81548173ffffffffffffffffffffffffffffffffffffffff021916908373ffffffffffffffffffffffffffffffffffffffff16021790555050565b60008060008373ffffffffffffffffffffffffffffffffffffffff1673ffffffffffffffffffffffffffffffffffffffff168152602001908152602001600020600101549050919050565b600181815481106104a057600080fd5b90600052602060002090600202016000915090508060000180546104c390610c9d565b80601f01602080910402602001604051908101604052809291908181526020018280546104ef90610c9d565b801561053c5780601f106105115761010080835404028352916020019161053c565b820191906000526020600020905b81548152906001019060200180831161051f57829003601f168201915b5050505050908060010154905082565b60006020528060005260406000206000915090508060000160009054906101000a900460ff16908060010154905082565b600060018054905082106105c6576040517f08c379a00000000000000000000000000000000000000000000000000000000081526004016105bd90610b3c565b60405180910390fd5b60018281548110610600577f4e487b7100000000000000000000000000000000000000000000000000000000600052603260045260246000fd5b9060005260206000209060020201600101549050919050565b6060600280548060200260200160405190810160405280929190818152602001828054801561069d57602002820191906000526020600020905b8160009054906101000a900473ffffffffffffffffffffffffffffffffffffffff1673ffffffffffffffffffffffffffffffffffffffff1681526020019060010190808311610653575b5050505050905090565b600281815481106106b757600080fd5b906000526020600020016000915054906101000a900473ffffffffffffffffffffffffffffffffffffffff1681565b6060600180549050821061072f576040517f08c379a000000000000000000000000000000000000000000000000000000000815260040161072690610b3c565b60405180910390fd5b60018281548110610769577f4e487b7100000000000000000000000000000000000000000000000000000000600052603260045260246000fd5b9060005260206000209060020201600001805461078590610c9d565b80601f01602080910402602001604051908101604052809291908181526020018280546107b190610c9d565b80156107fe5780601f106107d3576101008083540402835291602001916107fe565b820191906000526020600020905b8154815290600101906020018083116107e157829003601f168201915b50505050509050919050565b60008060008373ffffffffffffffffffffffffffffffffffffffff1673ffffffffffffffffffffffffffffffffffffffff16815260200190815260200160002060000160009054906101000a900460ff169050919050565b60008135905061087181610d3e565b92915050565b60008135905061088681610d55565b92915050565b60006020828403121561089e57600080fd5b60006108ac84828501610862565b91505092915050565b6000602082840312156108c757600080fd5b60006108d584828501610877565b91505092915050565b60006108ea83836108f6565b60208301905092915050565b6108ff81610c22565b82525050565b61090e81610c22565b82525050565b600061091f82610b87565b6109298185610baa565b935061093483610b77565b8060005b8381101561096557815161094c88826108de565b975061095783610b9d565b925050600181019050610938565b5085935050505092915050565b61097b81610c34565b82525050565b600061098c82610b92565b6109968185610bbb565b93506109a6818560208601610c6a565b6109af81610d2d565b840191505092915050565b60006109c7600d83610bbb565b91507f59612068617320766f7461646f000000000000000000000000000000000000006000830152602082019050919050565b6000610a07601283610bbb565b91507f43616e64696461746f20696e76616c69646f00000000000000000000000000006000830152602082019050919050565b610a4381610c60565b82525050565b6000602082019050610a5e6000830184610905565b92915050565b60006020820190508181036000830152610a7e8184610914565b905092915050565b6000602082019050610a9b6000830184610972565b92915050565b6000604082019050610ab66000830185610972565b610ac36020830184610a3a565b9392505050565b60006020820190508181036000830152610ae48184610981565b905092915050565b60006040820190508181036000830152610b068185610981565b9050610b156020830184610a3a565b9392505050565b60006020820190508181036000830152610b35816109ba565b9050919050565b60006020820190508181036000830152610b55816109fa565b9050919050565b6000602082019050610b716000830184610a3a565b92915050565b6000819050602082019050919050565b600081519050919050565b600081519050919050565b6000602082019050919050565b600082825260208201905092915050565b600082825260208201905092915050565b6000610bd782610c60565b9150610be283610c60565b9250827fffffffffffffffffffffffffffffffffffffffffffffffffffffffffffffffff03821115610c1757610c16610ccf565b5b828201905092915050565b6000610c2d82610c40565b9050919050565b60008115159050919050565b600073ffffffffffffffffffffffffffffffffffffffff82169050919050565b6000819050919050565b60005b83811015610c88578082015181840152602081019050610c6d565b83811115610c97576000848401525b50505050565b60006002820490506001821680610cb557607f821691505b60208210811415610cc957610cc8610cfe565b5b50919050565b7f4e487b7100000000000000000000000000000000000000000000000000000000600052601160045260246000fd5b7f4e487b7100000000000000000000000000000000000000000000000000000000600052602260045260246000fd5b6000601f19601f8301169050919050565b610d4781610c22565b8114610d5257600080fd5b50565b610d5e81610c60565b8114610d6957600080fd5b5056fea26469706673582212207895460327faa6cc100cf9eeab05b21bb8f80a8276513d8beaf6e2d5de8feb5c64736f6c63430008000033",
  "immutableReferences": {},
  "source": "// SPDX-License-Identifier: MIT\r\npragma solidity ^0.8.0;\r\n\r\ncontract VotingSystem {\r\n    struct Voter {\r\n        bool hasVoted;\r\n        uint256 candidateVoted; // ID del candidato por el que vot\r\n    }\r\n\r\n    struct Candidate {\r\n        string name;\r\n        uint256 voteCount;\r\n    }\r\n\r\n    mapping(address => Voter) public voters;\r\n    Candidate[] public candidates;\r\n    address[] public voterAddresses;\r\n\r\n    // Constructor que inicializa los candidatos\r\n    constructor() {\r\n        // Candidatos precargados\r\n        candidates.push(Candidate(\"Juan Ponce\", 0));\r\n        candidates.push(Candidate(\"Laura Silva\", 0));\r\n        candidates.push(Candidate(\"Pablo Morales\", 0));\r\n    }\r\n\r\n    function vote(uint256 candidateId) public {\r\n        require(!voters[msg.sender].hasVoted, \"Ya has votado\");\r\n        require(candidateId < candidates.length, \"Candidato invalido\");\r\n\r\n        voters[msg.sender] = Voter({\r\n            hasVoted: true,\r\n            candidateVoted: candidateId\r\n        });\r\n        candidates[candidateId].voteCount += 1;\r\n        \r\n        // Almacena la direccin del votante si es su primer voto\r\n        voterAddresses.push(msg.sender);\r\n    }\r\n\r\n    function getCandidateVoteCount(uint256 candidateId) public view returns (uint256) {\r\n        require(candidateId < candidates.length, \"Candidato invalido\");\r\n        return candidates[candidateId].voteCount;\r\n    }\r\n\r\n    function getCandidateName(uint256 candidateId) public view returns (string memory) {\r\n        require(candidateId < candidates.length, \"Candidato invalido\");\r\n        return candidates[candidateId].name;\r\n    }\r\n\r\n    function getAllVoterAddresses() public view returns (address[] memory) {\r\n        return voterAddresses;\r\n    }\r\n\r\n    function hasVoterVoted(address voterAddress) public view returns (bool) {\r\n    return voters[voterAddress].hasVoted; \r\n    }\r\n\r\n    function getVoterCandidate(address voterAddress) public view returns (uint256) {\r\n    return voters[voterAddress].candidateVoted;\r\n    }\r\n}",
  "sourcePath": "D:\\Leo\\Unlam\\Programacion web 3\\PROYECTO BLOCKCHAIN\\BlockchainTP\\SistemaDeVotacion.Contrato\\contracts\\VotingSystem.sol",
  "compiler": {
    "name": "solc",
    "version": "0.8.0+commit.c7dfd78e.Emscripten.clang"
  },
  "schemaVersion": "3.4.16",
  "updatedAt": "2024-11-03T23:32:27.805Z",
  "networkType": "ethereum",
  "devdoc": {
    "kind": "dev",
    "methods": {},
    "version": 1
  },
  "userdoc": {
    "kind": "user",
    "methods": {},
    "version": 1
  }
}